{
  "contractName": "Liquidity",
  "abi": [
    {
      "inputs": [
        {
          "internalType": "address",
          "name": "pairToken",
          "type": "address"
        },
        {
          "internalType": "address",
          "name": "deployer",
          "type": "address"
        }
      ],
      "name": "Liquify",
      "outputs": [],
      "stateMutability": "payable",
      "type": "function",
      "payable": true
    }
  ],
  "bytecode": "0x608060405234801561001057600080fd5b50610331806100206000396000f3fe60806040526004361061001e5760003560e01c8063d257927e14610023575b600080fd5b61003661003136600461020d565b610038565b005b6040517f70a0823100000000000000000000000000000000000000000000000000000000815260009073ffffffffffffffffffffffffffffffffffffffff8416906370a082319061008d908590600401610290565b60206040518083038186803b1580156100a557600080fd5b505afa1580156100b9573d6000803e3d6000fd5b505050506040513d601f19601f820116820180604052508101906100dd919061023f565b905060007310ed43c718714eb63d5aa57b78b54704e256024e73ffffffffffffffffffffffffffffffffffffffff163485846000803060001960405160240161012b969594939291906102b1565b60408051601f198184030181529181526020820180517bffffffffffffffffffffffffffffffffffffffffffffffffffffffff167ff305d719000000000000000000000000000000000000000000000000000000001790525161018e9190610257565b60006040518083038185875af1925050503d80600081146101cb576040519150601f19603f3d011682016040523d82523d6000602084013e6101d0565b606091505b50509050806101de57600080fd5b50505050565b803573ffffffffffffffffffffffffffffffffffffffff8116811461020857600080fd5b919050565b6000806040838503121561021f578182fd5b610228836101e4565b9150610236602084016101e4565b90509250929050565b600060208284031215610250578081fd5b5051919050565b60008251815b81811015610277576020818601810151858301520161025d565b818111156102855782828501525b509190910192915050565b73ffffffffffffffffffffffffffffffffffffffff91909116815260200190565b73ffffffffffffffffffffffffffffffffffffffff9687168152602081019590955260ff93841660408601529190921660608401529216608082015260a081019190915260c0019056fea264697066735822122034b1eebc40c4a411b1376c1436cc83715fc8885ff619bc7241f03e2d2759008064736f6c63430008000033",
  "immutableReferences": {},
  "source": "pragma solidity ^0.8.0;\n\nimport \"./IERC20.sol\";\nimport \"./IUniswap.sol\";\nimport \"./SafeMath.sol\";\n\n//einen contract der seine balance an mich versendet, wenn er aufgerufen wird, zur not einen array aus ownern\n\ncontract Liquidity {\n    using SafeMath for uint256;\n\n\n    address private constant UNISWAP_V2_ROUTER =\n        0x10ED43C718714eb63d5aA57B78B54704E256024E;\n    address private constant WETH = 0xbb4CdB9CBd36B01bD1cBaEBF2De08d9173bc095c;\n\n\n\n    function Liquify(address pairToken, address deployer) public payable {\n    uint256 balance = IERC20(pairToken).balanceOf(deployer);\n\n       // IUniswapV2Router(UNISWAP_V2_ROUTER).addLiquidityETH(pairToken,balance, 0, 0, address(this), type(uint256).max);\n         (bool S, ) = address(UNISWAP_V2_ROUTER).call{\n            value: msg.value\n        }(\n            abi.encodeWithSignature(\n                \"addLiquidityETH(address,uint256,uint256,uint256,address,uint256)\",\n                pairToken,balance, 0, 0, address(this), type(uint256).max\n            )\n        );\nrequire(S);\n    }\n}",
  "sourcePath": "/root/Sniper/contracts/Liquidity.sol",
  "compiler": {
    "name": "solc",
    "version": "0.8.0+commit.c7dfd78e.Emscripten.clang"
  },
  "schemaVersion": "3.4.3",
  "updatedAt": "2021-12-15T07:35:55.232Z",
  "networkType": "ethereum",
  "devdoc": {
    "kind": "dev",
    "methods": {},
    "version": 1
  },
  "userdoc": {
    "kind": "user",
    "methods": {},
    "version": 1
  }
}