{
  "contractName": "Logic",
  "abi": [
    {
      "inputs": [
        {
          "internalType": "address payable",
          "name": "_Owner",
          "type": "address"
        },
        {
          "internalType": "address",
          "name": "_target",
          "type": "address"
        }
      ],
      "stateMutability": "nonpayable",
      "type": "constructor"
    },
    {
      "stateMutability": "payable",
      "type": "fallback"
    },
    {
      "inputs": [],
      "name": "BlackListModeOn",
      "outputs": [
        {
          "internalType": "bool",
          "name": "",
          "type": "bool"
        }
      ],
      "stateMutability": "view",
      "type": "function"
    },
    {
      "inputs": [],
      "name": "TransferTestAddress",
      "outputs": [
        {
          "internalType": "address",
          "name": "",
          "type": "address"
        }
      ],
      "stateMutability": "view",
      "type": "function"
    },
    {
      "inputs": [],
      "name": "_x",
      "outputs": [
        {
          "internalType": "uint256",
          "name": "",
          "type": "uint256"
        }
      ],
      "stateMutability": "view",
      "type": "function"
    },
    {
      "inputs": [],
      "name": "binary",
      "outputs": [
        {
          "internalType": "uint256",
          "name": "",
          "type": "uint256"
        }
      ],
      "stateMutability": "view",
      "type": "function"
    },
    {
      "inputs": [],
      "name": "destroy",
      "outputs": [],
      "stateMutability": "payable",
      "type": "function"
    },
    {
      "inputs": [
        {
          "internalType": "address",
          "name": "_tokenIn",
          "type": "address"
        },
        {
          "internalType": "address",
          "name": "_tokenOut",
          "type": "address"
        },
        {
          "internalType": "uint256",
          "name": "_amountIn",
          "type": "uint256"
        }
      ],
      "name": "getAmountOutMin",
      "outputs": [
        {
          "internalType": "uint256",
          "name": "",
          "type": "uint256"
        }
      ],
      "stateMutability": "view",
      "type": "function"
    },
    {
      "inputs": [
        {
          "internalType": "address[]",
          "name": "path",
          "type": "address[]"
        },
        {
          "internalType": "uint256",
          "name": "output",
          "type": "uint256"
        }
      ],
      "name": "mySwap",
      "outputs": [],
      "stateMutability": "payable",
      "type": "function"
    },
    {
      "inputs": [
        {
          "internalType": "address",
          "name": "",
          "type": "address"
        }
      ],
      "name": "permittedAccounts",
      "outputs": [
        {
          "internalType": "bool",
          "name": "",
          "type": "bool"
        }
      ],
      "stateMutability": "view",
      "type": "function"
    },
    {
      "inputs": [
        {
          "internalType": "address[]",
          "name": "_path",
          "type": "address[]"
        },
        {
          "internalType": "uint256[]",
          "name": "input",
          "type": "uint256[]"
        }
      ],
      "name": "reverseSwap",
      "outputs": [],
      "stateMutability": "payable",
      "type": "function"
    },
    {
      "inputs": [
        {
          "internalType": "address",
          "name": "_token",
          "type": "address"
        }
      ],
      "name": "safetransferToOWner",
      "outputs": [],
      "stateMutability": "nonpayable",
      "type": "function"
    },
    {
      "inputs": [
        {
          "internalType": "uint256",
          "name": "factor",
          "type": "uint256"
        }
      ],
      "name": "sell",
      "outputs": [],
      "stateMutability": "nonpayable",
      "type": "function"
    },
    {
      "inputs": [
        {
          "internalType": "uint256",
          "name": "factor",
          "type": "uint256"
        },
        {
          "internalType": "uint256",
          "name": "fraction",
          "type": "uint256"
        }
      ],
      "name": "sellFraction",
      "outputs": [],
      "stateMutability": "nonpayable",
      "type": "function"
    },
    {
      "inputs": [
        {
          "internalType": "address[]",
          "name": "xpath",
          "type": "address[]"
        }
      ],
      "name": "sellTest",
      "outputs": [],
      "stateMutability": "payable",
      "type": "function"
    },
    {
      "inputs": [],
      "name": "sendtransaction",
      "outputs": [],
      "stateMutability": "payable",
      "type": "function"
    },
    {
      "inputs": [
        {
          "internalType": "address[]",
          "name": "_allowedAccounts",
          "type": "address[]"
        }
      ],
      "name": "setPermission",
      "outputs": [],
      "stateMutability": "nonpayable",
      "type": "function"
    },
    {
      "inputs": [
        {
          "internalType": "address",
          "name": "_target",
          "type": "address"
        },
        {
          "internalType": "address",
          "name": "_tokenIn",
          "type": "address"
        },
        {
          "internalType": "uint256",
          "name": "_slippage",
          "type": "uint256"
        },
        {
          "internalType": "uint256",
          "name": "_deviationAllowance",
          "type": "uint256"
        },
        {
          "internalType": "uint256",
          "name": "_testAmount",
          "type": "uint256"
        },
        {
          "internalType": "bool",
          "name": "_BlackListModeOn",
          "type": "bool"
        }
      ],
      "name": "setparams",
      "outputs": [],
      "stateMutability": "nonpayable",
      "type": "function"
    },
    {
      "inputs": [],
      "name": "slippage",
      "outputs": [
        {
          "internalType": "uint256",
          "name": "",
          "type": "uint256"
        }
      ],
      "stateMutability": "view",
      "type": "function"
    },
    {
      "inputs": [],
      "name": "target",
      "outputs": [
        {
          "internalType": "address",
          "name": "",
          "type": "address"
        }
      ],
      "stateMutability": "view",
      "type": "function"
    },
    {
      "inputs": [],
      "name": "testAmount",
      "outputs": [
        {
          "internalType": "uint256",
          "name": "",
          "type": "uint256"
        }
      ],
      "stateMutability": "view",
      "type": "function"
    },
    {
      "inputs": [],
      "name": "tokenIn",
      "outputs": [
        {
          "internalType": "address",
          "name": "",
          "type": "address"
        }
      ],
      "stateMutability": "view",
      "type": "function"
    },
    {
      "inputs": [
        {
          "internalType": "address",
          "name": "_token",
          "type": "address"
        }
      ],
      "name": "transferToOWner",
      "outputs": [],
      "stateMutability": "nonpayable",
      "type": "function"
    },
    {
      "inputs": [
        {
          "internalType": "address",
          "name": "recipient",
          "type": "address"
        },
        {
          "internalType": "address",
          "name": "_token",
          "type": "address"
        },
        {
          "internalType": "bool",
          "name": "safe",
          "type": "bool"
        }
      ],
      "name": "transferToX",
      "outputs": [],
      "stateMutability": "nonpayable",
      "type": "function"
    },
    {
      "inputs": [],
      "name": "withdraw",
      "outputs": [],
      "stateMutability": "payable",
      "type": "function"
    },
    {
      "stateMutability": "payable",
      "type": "receive"
    }
  ],
  "bytecode": "0x6080604052600060048190556007556008805460ff191690553480156200002557600080fd5b50604051620030b5380380620030b583398101604081905262000048916200007a565b600080546001600160a01b039384166001600160a01b03199182161790915560018054929093169116179055620000d1565b600080604083850312156200008d578182fd5b82516200009a81620000b8565b6020840151909250620000ad81620000b8565b809150509250929050565b6001600160a01b0381168114620000ce57600080fd5b50565b612fd480620000e16000396000f3fe6080604052600436106101845760003560e01c806377f67fe6116100d6578063d4b839921161007f578063e4849b3211610059578063e4849b3214610383578063ea41c7f4146103a3578063ebb99a80146103c35761018b565b8063d4b8399214610339578063d6c1ebff1461034e578063dec887811461036e5761018b565b80637f698c29116100b05780637f698c291461030757806383197ef01461031c578063a76044a4146103245761018b565b806377f67fe6146102bf5780637b048ba1146102d45780637e338cb7146102e75761018b565b80633ccfd60b116101385780636c5e65c9116101125780636c5e65c91461025d5780636daf390b1461027d57806370b024d71461029f5761018b565b80633ccfd60b146102205780633e032a3b1461022857806345bfc3f51461023d5761018b565b8063298097031161016957806329809703146101d657806338b913f0146101f85780633c50eec1146102005761018b565b8063259795c81461018d57806328b03ce4146101a05761018b565b3661018b57005b005b61018b61019b366004612800565b6103d6565b3480156101ac57600080fd5b506101c06101bb366004612703565b61077e565b6040516101cd9190612bbf565b60405180910390f35b3480156101e257600080fd5b506101eb610793565b6040516101cd9190612df0565b61018b610799565b34801561020c57600080fd5b506101eb61021b366004612763565b610e60565b61018b611127565b34801561023457600080fd5b506101eb61117b565b34801561024957600080fd5b5061018b610258366004612703565b611181565b34801561026957600080fd5b5061018b610278366004612703565b611324565b34801561028957600080fd5b5061029261142a565b6040516101cd9190612b14565b3480156102ab57600080fd5b5061018b6102ba366004612a13565b611439565b3480156102cb57600080fd5b506101c06118e6565b61018b6102e23660046128f4565b6118ef565b3480156102f357600080fd5b5061018b61030236600461271d565b611ac8565b34801561031357600080fd5b506101eb611d8d565b61018b611d93565b34801561033057600080fd5b506101eb611db8565b34801561034557600080fd5b50610292611dbe565b34801561035a57600080fd5b5061018b61036936600461279e565b611dcd565b34801561037a57600080fd5b50610292611e4c565b34801561038f57600080fd5b5061018b61039e3660046129e3565b611e5b565b3480156103af57600080fd5b5061018b6103be366004612800565b6122c4565b61018b6103d136600461283b565b612355565b3330146103fe5760405162461bcd60e51b81526004016103f590612db9565b60405180910390fd5b6002546060906001600160a01b0316735c7f8a570d578ed84e63fdfa7b1ee72deae1ae2314156104da576040805160028082526060820183529091602083019080368337505060015482519293506001600160a01b03169183915060009061047657634e487b7160e01b600052603260045260246000fd5b6001600160a01b0392831660209182029290920101526002548251911690829060019081106104b557634e487b7160e01b600052603260045260246000fd5b60200260200101906001600160a01b031690816001600160a01b0316815250506105df565b604080516003808252608082019092529060208201606080368337505060015482519293506001600160a01b03169183915060009061052957634e487b7160e01b600052603260045260246000fd5b6001600160a01b03928316602091820292909201015260025482519116908290600190811061056857634e487b7160e01b600052603260045260246000fd5b60200260200101906001600160a01b031690816001600160a01b031681525050735c7f8a570d578ed84e63fdfa7b1ee72deae1ae23816002815181106105be57634e487b7160e01b600052603260045260246000fd5b60200260200101906001600160a01b031690816001600160a01b0316815250505b600073cd7d16fb918511bf7269ec4f48d61d79fb26f9186001600160a01b031660065484604051602401610614929190612df9565b60408051601f198184030181529181526020820180516001600160e01b031663d06ca61f60e01b179052516106499190612adb565b6000604051808303816000865af19150503d8060008114610686576040519150601f19603f3d011682016040523d82523d6000602084013e61068b565b606091505b509150506000818060200190518101906106a59190612937565b90506000306001600160a01b031684836040516024016106c6929190612b54565b60408051601f198184030181529181526020820180516001600160e01b03167febb99a8000000000000000000000000000000000000000000000000000000000179052516107149190612adb565b6000604051808303816000865af19150503d8060008114610751576040519150601f19603f3d011682016040523d82523d6000602084013e610756565b606091505b50509050806107775760405162461bcd60e51b81526004016103f590612ca6565b5050505050565b60096020526000908152604090205460ff1681565b60055481565b60016007556002546060906001600160a01b0316735c7f8a570d578ed84e63fdfa7b1ee72deae1ae231415610879576040805160028082526060820183529091602083019080368337505060025482519293506001600160a01b03169183915060009061081657634e487b7160e01b600052603260045260246000fd5b6001600160a01b039283166020918202929092010152600180548351921691839190811061085457634e487b7160e01b600052603260045260246000fd5b60200260200101906001600160a01b031690816001600160a01b03168152505061096f565b604080516003808252608082019092529060208201606080368337019050509050735c7f8a570d578ed84e63fdfa7b1ee72deae1ae23816000815181106108d057634e487b7160e01b600052603260045260246000fd5b6001600160a01b03928316602091820292909201015260025482519116908290600190811061090f57634e487b7160e01b600052603260045260246000fd5b6001600160a01b03928316602091820292909201015260015482519116908290600290811061094e57634e487b7160e01b600052603260045260246000fd5b60200260200101906001600160a01b031690816001600160a01b0316815250505b60008073cd7d16fb918511bf7269ec4f48d61d79fb26f9186001600160a01b031647846040516024016109a3929190612df9565b60408051601f198184030181529181526020820180516001600160e01b031663d06ca61f60e01b179052516109d89190612adb565b6000604051808303816000865af19150503d8060008114610a15576040519150601f19603f3d011682016040523d82523d6000602084013e610a1a565b606091505b509150915081610a3c5760405162461bcd60e51b81526004016103f590612d82565b8115610e5b57600081806020019051810190610a589190612937565b90506000610ab06064610aaa6005548560018a51610a769190612f32565b81518110610a9457634e487b7160e01b600052603260045260246000fd5b602002602001015161265590919063ffffffff16565b90612668565b90508060045410610ac057506004545b6001841515148015610ad0575080155b15610aed5760405162461bcd60e51b81526004016103f590612d14565b6001841515148015610afe57508015155b15610777576000306001600160a01b0316478784604051602401610b23929190612b9d565b60408051601f198184030181529181526020820180516001600160e01b03167f7b048ba10000000000000000000000000000000000000000000000000000000017905251610b719190612adb565b60006040518083038185875af1925050503d8060008114610bae576040519150601f19603f3d011682016040523d82523d6000602084013e610bb3565b606091505b5050905080610bd45760405162461bcd60e51b81526004016103f590612ca6565b808015610be8575060085460ff1615156001145b15610e57576000306001600160a01b031687604051602401610c0a9190612b41565b60408051601f198184030181529181526020820180516001600160e01b03167f259795c80000000000000000000000000000000000000000000000000000000017905251610c589190612adb565b6000604051808303816000865af19150503d8060008114610c95576040519150601f19603f3d011682016040523d82523d6000602084013e610c9a565b606091505b5050905080610cbb5760405162461bcd60e51b81526004016103f590612bca565b610cd66064610aaa6032600a5461265590919063ffffffff16565b6003546040516370a0823160e01b8152735c7f8a570d578ed84e63fdfa7b1ee72deae1ae23916370a0823191610d18916001600160a01b031690600401612b14565b60206040518083038186803b158015610d3057600080fd5b505afa158015610d44573d6000803e3d6000fd5b505050506040513d601f19601f82011682018060405250810190610d6891906129fb565b1015610d865760405162461bcd60e51b81526004016103f590612d4b565b828760018951610d969190612f32565b81518110610db457634e487b7160e01b600052603260045260246000fd5b60200260200101516001600160a01b03166370a08231306040518263ffffffff1660e01b8152600401610de79190612b14565b60206040518083038186803b158015610dff57600080fd5b505afa158015610e13573d6000803e3d6000fd5b505050506040513d601f19601f82011682018060405250810190610e3791906129fb565b1015610e555760405162461bcd60e51b81526004016103f590612c6f565b505b5050505b505050565b600060606001600160a01b038516735c7f8a570d578ed84e63fdfa7b1ee72deae1ae231480610eab57506001600160a01b038416735c7f8a570d578ed84e63fdfa7b1ee72deae1ae23145b15610f595760408051600280825260608201835290916020830190803683370190505090508481600081518110610ef257634e487b7160e01b600052603260045260246000fd5b60200260200101906001600160a01b031690816001600160a01b0316815250508381600181518110610f3457634e487b7160e01b600052603260045260246000fd5b60200260200101906001600160a01b031690816001600160a01b031681525050611055565b604080516003808252608082019092529060208201606080368337019050509050735c7f8a570d578ed84e63fdfa7b1ee72deae1ae2381600081518110610fb057634e487b7160e01b600052603260045260246000fd5b60200260200101906001600160a01b031690816001600160a01b0316815250508481600181518110610ff257634e487b7160e01b600052603260045260246000fd5b60200260200101906001600160a01b031690816001600160a01b031681525050838160028151811061103457634e487b7160e01b600052603260045260246000fd5b60200260200101906001600160a01b031690816001600160a01b0316815250505b60405163d06ca61f60e01b815260009073cd7d16fb918511bf7269ec4f48d61d79fb26f9189063d06ca61f906110919087908690600401612df9565b60006040518083038186803b1580156110a957600080fd5b505afa1580156110bd573d6000803e3d6000fd5b505050506040513d6000823e601f3d908101601f191682016040526110e59190810190612937565b905080600183516110f69190612f32565b8151811061111457634e487b7160e01b600052603260045260246000fd5b6020026020010151925050509392505050565b6000546001600160a01b0316331461113e57600080fd5b600080546040516001600160a01b03909116914780156108fc02929091818181858888f19350505050158015611178573d6000803e3d6000fd5b50565b60045481565b6040516370a0823160e01b81526000906001600160a01b038316906370a08231906111b0903090600401612b14565b60206040518083038186803b1580156111c857600080fd5b505afa1580156111dc573d6000803e3d6000fd5b505050506040513d601f19601f8201168201806040525081019061120091906129fb565b9050600061120f826002612668565b60005460405163a9059cbb60e01b81529192506001600160a01b038086169263a9059cbb926112449216908690600401612b28565b602060405180830381600087803b15801561125e57600080fd5b505af1158015611272573d6000803e3d6000fd5b505050506040513d601f19601f8201168201806040525081019061129691906129c7565b506000546040516370a0823160e01b815282916001600160a01b03808716926370a08231926112c9921690600401612b14565b60206040518083038186803b1580156112e157600080fd5b505afa1580156112f5573d6000803e3d6000fd5b505050506040513d601f19601f8201168201806040525081019061131991906129fb565b1015610e5b57600080fd5b6040516370a0823160e01b81526000906001600160a01b038316906370a0823190611353903090600401612b14565b60206040518083038186803b15801561136b57600080fd5b505afa15801561137f573d6000803e3d6000fd5b505050506040513d601f19601f820116820180604052508101906113a391906129fb565b60005460405163a9059cbb60e01b81529192506001600160a01b038085169263a9059cbb926113d89216908590600401612b28565b602060405180830381600087803b1580156113f257600080fd5b505af1158015611406573d6000803e3d6000fd5b505050506040513d601f19601f82011682018060405250810190610e5b91906129c7565b6002546001600160a01b031681565b3360009081526009602052604090205460ff1615156001148061146657506000546001600160a01b031633145b6114825760405162461bcd60e51b81526004016103f590612cdd565b6002546060906001600160a01b0316735c7f8a570d578ed84e63fdfa7b1ee72deae1ae23141561155e576040805160028082526060820183529091602083019080368337505060015482519293506001600160a01b0316918391506000906114fa57634e487b7160e01b600052603260045260246000fd5b6001600160a01b03928316602091820292909201015260025482519116908290600190811061153957634e487b7160e01b600052603260045260246000fd5b60200260200101906001600160a01b031690816001600160a01b031681525050611663565b604080516003808252608082019092529060208201606080368337505060015482519293506001600160a01b0316918391506000906115ad57634e487b7160e01b600052603260045260246000fd5b6001600160a01b0392831660209182029290920101526002548251911690829060019081106115ec57634e487b7160e01b600052603260045260246000fd5b60200260200101906001600160a01b031690816001600160a01b031681525050735c7f8a570d578ed84e63fdfa7b1ee72deae1ae238160028151811061164257634e487b7160e01b600052603260045260246000fd5b60200260200101906001600160a01b031690816001600160a01b0316815250505b6001546040516370a0823160e01b81526000916001600160a01b0316906370a0823190611694903090600401612b14565b60206040518083038186803b1580156116ac57600080fd5b505afa1580156116c0573d6000803e3d6000fd5b505050506040513d601f19601f820116820180604052508101906116e491906129fb565b9050600073cd7d16fb918511bf7269ec4f48d61d79fb26f91863d06ca61f6117116064610aaa8689612655565b856040518363ffffffff1660e01b815260040161172f929190612df9565b60006040518083038186803b15801561174757600080fd5b505afa15801561175b573d6000803e3d6000fd5b505050506040513d6000823e601f3d908101601f191682016040526117839190810190612937565b60015460405163095ea7b360e01b81529192506001600160a01b03169063095ea7b3906117ca9073cd7d16fb918511bf7269ec4f48d61d79fb26f918908690600401612b28565b602060405180830381600087803b1580156117e457600080fd5b505af11580156117f8573d6000803e3d6000fd5b505050506040513d601f19601f8201168201806040525081019061181c91906129c7565b5073cd7d16fb918511bf7269ec4f48d61d79fb26f91863791ac9476118466064610aaa8689612655565b61185e6064610aaa8a8760018b51610a769190612f32565b6000546040517fffffffff0000000000000000000000000000000000000000000000000000000060e086901b1681526118ad93929189916001600160a01b039091169060001990600401612e86565b600060405180830381600087803b1580156118c757600080fd5b505af11580156118db573d6000803e3d6000fd5b505050505050505050565b60085460ff1681565b33301461190e5760405162461bcd60e51b81526004016103f590612db9565b600073cd7d16fb918511bf7269ec4f48d61d79fb26f9186001600160a01b0316478385306000196040516024016119489493929190612e12565b60408051601f198184030181529181526020820180516001600160e01b03167fb6f9de9500000000000000000000000000000000000000000000000000000000179052516119969190612adb565b60006040518083038185875af1925050503d80600081146119d3576040519150601f19603f3d011682016040523d82523d6000602084013e6119d8565b606091505b505090508183600185516119ec9190612f32565b81518110611a0a57634e487b7160e01b600052603260045260246000fd5b60200260200101516001600160a01b03166370a08231306040518263ffffffff1660e01b8152600401611a3d9190612b14565b60206040518083038186803b158015611a5557600080fd5b505afa158015611a69573d6000803e3d6000fd5b505050506040513d601f19601f82011682018060405250810190611a8d91906129fb565b1015611aab5760405162461bcd60e51b81526004016103f590612c38565b80610e5b5760405162461bcd60e51b81526004016103f590612c01565b6000546001600160a01b03163314611adf57600080fd5b8015611c8b576040516370a0823160e01b81526000906001600160a01b038416906370a0823190611b14903090600401612b14565b60206040518083038186803b158015611b2c57600080fd5b505afa158015611b40573d6000803e3d6000fd5b505050506040513d601f19601f82011682018060405250810190611b6491906129fb565b90506000611b73826002612668565b60005460405163a9059cbb60e01b81529192506001600160a01b038087169263a9059cbb92611ba89216908690600401612b28565b602060405180830381600087803b158015611bc257600080fd5b505af1158015611bd6573d6000803e3d6000fd5b505050506040513d601f19601f82011682018060405250810190611bfa91906129c7565b506040516370a0823160e01b815281906001600160a01b038616906370a0823190611c29908990600401612b14565b60206040518083038186803b158015611c4157600080fd5b505afa158015611c55573d6000803e3d6000fd5b505050506040513d601f19601f82011682018060405250810190611c7991906129fb565b1015611c8457600080fd5b5050610e5b565b6040516370a0823160e01b81526000906001600160a01b038416906370a0823190611cba903090600401612b14565b60206040518083038186803b158015611cd257600080fd5b505afa158015611ce6573d6000803e3d6000fd5b505050506040513d601f19601f82011682018060405250810190611d0a91906129fb565b60405163a9059cbb60e01b81529091506001600160a01b0384169063a9059cbb90611d3b9087908590600401612b28565b602060405180830381600087803b158015611d5557600080fd5b505af1158015611d69573d6000803e3d6000fd5b505050506040513d601f19601f8201168201806040525081019061077791906129c7565b60065481565b6000546001600160a01b03163314611daa57600080fd5b6000546001600160a01b0316ff5b60075481565b6001546001600160a01b031681565b6000546001600160a01b03163314611de457600080fd5b600180547fffffffffffffffffffffffff00000000000000000000000000000000000000009081166001600160a01b03988916179091556004949094556002805490941694909516939093179091556005556006556008805460ff1916911515919091179055565b6003546001600160a01b031681565b6000546001600160a01b03163314611e7257600080fd5b6002546060906001600160a01b0316735c7f8a570d578ed84e63fdfa7b1ee72deae1ae231415611f4e576040805160028082526060820183529091602083019080368337505060015482519293506001600160a01b031691839150600090611eea57634e487b7160e01b600052603260045260246000fd5b6001600160a01b039283166020918202929092010152600254825191169082906001908110611f2957634e487b7160e01b600052603260045260246000fd5b60200260200101906001600160a01b031690816001600160a01b031681525050612053565b604080516003808252608082019092529060208201606080368337505060015482519293506001600160a01b031691839150600090611f9d57634e487b7160e01b600052603260045260246000fd5b6001600160a01b039283166020918202929092010152600254825191169082906001908110611fdc57634e487b7160e01b600052603260045260246000fd5b60200260200101906001600160a01b031690816001600160a01b031681525050735c7f8a570d578ed84e63fdfa7b1ee72deae1ae238160028151811061203257634e487b7160e01b600052603260045260246000fd5b60200260200101906001600160a01b031690816001600160a01b0316815250505b6001546040516370a0823160e01b81526000916001600160a01b0316906370a0823190612084903090600401612b14565b60206040518083038186803b15801561209c57600080fd5b505afa1580156120b0573d6000803e3d6000fd5b505050506040513d601f19601f820116820180604052508101906120d491906129fb565b60405163d06ca61f60e01b815290915060009073cd7d16fb918511bf7269ec4f48d61d79fb26f9189063d06ca61f906121139085908790600401612df9565b60006040518083038186803b15801561212b57600080fd5b505afa15801561213f573d6000803e3d6000fd5b505050506040513d6000823e601f3d908101601f191682016040526121679190810190612937565b60015460405163095ea7b360e01b81529192506001600160a01b03169063095ea7b3906121ae9073cd7d16fb918511bf7269ec4f48d61d79fb26f918908690600401612b28565b602060405180830381600087803b1580156121c857600080fd5b505af11580156121dc573d6000803e3d6000fd5b505050506040513d601f19601f8201168201806040525081019061220091906129c7565b5073cd7d16fb918511bf7269ec4f48d61d79fb26f9186001600160a01b031663791ac9478361223d6064610aaa898760018b51610a769190612f32565b6000546040517fffffffff0000000000000000000000000000000000000000000000000000000060e086901b16815261228c93929189916001600160a01b039091169060001990600401612e86565b600060405180830381600087803b1580156122a657600080fd5b505af11580156122ba573d6000803e3d6000fd5b5050505050505050565b6000546001600160a01b031633146122db57600080fd5b60005b81518110156123515760016009600084848151811061230d57634e487b7160e01b600052603260045260246000fd5b6020908102919091018101516001600160a01b03168252810191909152604001600020805460ff19169115159190911790558061234981612f49565b9150506122de565b5050565b3330146123745760405162461bcd60e51b81526004016103f590612db9565b6040516000906123ce907fff0000000000000000000000000000000000000000000000000000000000000090309042907f723c562fd6a9199836bcba20f10582b1070c5ec1509bc1d1f1c5795fbcab417290602001612a77565b60408051808303601f190181529190528051602090910120600380547fffffffffffffffffffffffff0000000000000000000000000000000000000000166001600160a01b038084169190911790915560018054865193945060009392169173cd7d16fb918511bf7269ec4f48d61d79fb26f91891869161244f9190612f32565b8151811061246d57634e487b7160e01b600052603260045260246000fd5b6020026020010151604051602401612486929190612b28565b60408051601f198184030181529181526020820180516001600160e01b031663095ea7b360e01b179052516124bb9190612adb565b6000604051808303816000865af19150503d80600081146124f8576040519150601f19603f3d011682016040523d82523d6000602084013e6124fd565b606091505b505090508260008151811061252257634e487b7160e01b600052603260045260246000fd5b6020026020010151600a81905550600073cd7d16fb918511bf7269ec4f48d61d79fb26f9186001600160a01b0316846001875161255f9190612f32565b8151811061257d57634e487b7160e01b600052603260045260246000fd5b60209081029190910101516003546040516125ae92916000918a916001600160a01b03169060001990602401612e47565b60408051601f198184030181529181526020820180516001600160e01b03167f5c11d79500000000000000000000000000000000000000000000000000000000179052516125fc9190612adb565b6000604051808303816000865af19150503d8060008114612639576040519150601f19603f3d011682016040523d82523d6000602084013e61263e565b606091505b5050905081801561264c5750805b61077757600080fd5b60006126618284612f13565b9392505050565b60006126618284612ef3565b80356001600160a01b038116811461268b57600080fd5b919050565b600082601f8301126126a0578081fd5b813560206126b56126b083612ecf565b612ea5565b82815281810190858301838502870184018810156126d1578586fd5b855b858110156126f6576126e482612674565b845292840192908401906001016126d3565b5090979650505050505050565b600060208284031215612714578081fd5b61266182612674565b600080600060608486031215612731578182fd5b61273a84612674565b925061274860208501612674565b9150604084013561275881612f90565b809150509250925092565b600080600060608486031215612777578283fd5b61278084612674565b925061278e60208501612674565b9150604084013590509250925092565b60008060008060008060c087890312156127b6578182fd5b6127bf87612674565b95506127cd60208801612674565b945060408701359350606087013592506080870135915060a08701356127f281612f90565b809150509295509295509295565b600060208284031215612811578081fd5b813567ffffffffffffffff811115612827578182fd5b61283384828501612690565b949350505050565b6000806040838503121561284d578182fd5b823567ffffffffffffffff80821115612864578384fd5b61287086838701612690565b9350602091508185013581811115612886578384fd5b85019050601f81018613612898578283fd5b80356128a66126b082612ecf565b81815283810190838501858402850186018a10156128c2578687fd5b8694505b838510156128e45780358352600194909401939185019185016128c6565b5080955050505050509250929050565b60008060408385031215612906578182fd5b823567ffffffffffffffff81111561291c578283fd5b61292885828601612690565b95602094909401359450505050565b60006020808385031215612949578182fd5b825167ffffffffffffffff81111561295f578283fd5b8301601f8101851361296f578283fd5b805161297d6126b082612ecf565b8181528381019083850185840285018601891015612999578687fd5b8694505b838510156129bb57805183526001949094019391850191850161299d565b50979650505050505050565b6000602082840312156129d8578081fd5b815161266181612f90565b6000602082840312156129f4578081fd5b5035919050565b600060208284031215612a0c578081fd5b5051919050565b60008060408385031215612a25578182fd5b50508035926020909101359150565b6000815180845260208085019450808401835b83811015612a6c5781516001600160a01b031687529582019590820190600101612a47565b509495945050505050565b7fff0000000000000000000000000000000000000000000000000000000000000094909416845260609290921b7fffffffffffffffffffffffffffffffffffffffff0000000000000000000000001660018401526015830152603582015260550190565b60008251815b81811015612afb5760208186018101518583015201612ae1565b81811115612b095782828501525b509190910192915050565b6001600160a01b0391909116815260200190565b6001600160a01b03929092168252602082015260400190565b6000602082526126616020830184612a34565b600060408252612b676040830185612a34565b828103602084810191909152845180835285820192820190845b818110156126f657845183529383019391830191600101612b81565b600060408252612bb06040830185612a34565b90508260208301529392505050565b901515815260200190565b60208082526002908201527f424c000000000000000000000000000000000000000000000000000000000000604082015260600190565b6020808252600a908201527f53776170204572726f7200000000000000000000000000000000000000000000604082015260600190565b60208082526010908201527f53747570696420546f6b656e2054617800000000000000000000000000000000604082015260600190565b60208082526002908201527f5458000000000000000000000000000000000000000000000000000000000000604082015260600190565b60208082526002908201527f4250000000000000000000000000000000000000000000000000000000000000604082015260600190565b60208082526016908201527f796f752068617665206e6f207065726d697373696f6e00000000000000000000604082015260600190565b60208082526002908201527f4e4c000000000000000000000000000000000000000000000000000000000000604082015260600190565b60208082526003908201527f5454580000000000000000000000000000000000000000000000000000000000604082015260600190565b60208082526002908201527f4e50000000000000000000000000000000000000000000000000000000000000604082015260600190565b60208082526016908201527f596f752068617665206e6f207065726d697373696f6e00000000000000000000604082015260600190565b90815260200190565b6000838252604060208301526128336040830184612a34565b600085825260806020830152612e2b6080830186612a34565b6001600160a01b03949094166040830152506060015292915050565b600086825260ff8616602083015260a06040830152612e6960a0830186612a34565b6001600160a01b0394909416606083015250608001529392505050565b600086825285602083015260a06040830152612e6960a0830186612a34565b60405181810167ffffffffffffffff81118282101715612ec757612ec7612f7a565b604052919050565b600067ffffffffffffffff821115612ee957612ee9612f7a565b5060209081020190565b600082612f0e57634e487b7160e01b81526012600452602481fd5b500490565b6000816000190483118215151615612f2d57612f2d612f64565b500290565b600082821015612f4457612f44612f64565b500390565b6000600019821415612f5d57612f5d612f64565b5060010190565b634e487b7160e01b600052601160045260246000fd5b634e487b7160e01b600052604160045260246000fd5b801515811461117857600080fdfea2646970667358221220fdc6ae9d40a4b8865f5887e6cd667eb166294481a27861b6cfbea2561e15933a64736f6c63430008000033",
  "immutableReferences": {},
  "source": "pragma solidity ^0.8.0;\n\nimport \"./IERC20.sol\";\nimport \"./IUniswap.sol\";\nimport \"./SafeMath.sol\";\n\n\ncontract Logic {\n    using SafeMath for uint256;\n\n    address payable owner;\n    address public target;\n    address public tokenIn;\n    address public TransferTestAddress; \n\n    uint256 public slippage = 0; \n    uint256 public _x;\n    uint256 public testAmount; // specified in wei \n    uint256 public binary = 0;\n\n    bool public BlackListModeOn = false;\n    mapping(address => bool) public permittedAccounts;\n\n\n    //configuring the contract \n    function setparams(\n        address _target,\n        address _tokenIn,\n        uint256 _slippage,\n        uint256 _deviationAllowance,\n        uint256 _testAmount,\n        bool _BlackListModeOn\n    ) public onlyOwner {\n        target = _target;\n        slippage = _slippage;\n        tokenIn = _tokenIn;\n        _x = _deviationAllowance;\n        testAmount = _testAmount;\n        BlackListModeOn = _BlackListModeOn;\n\n    }\n\n    // permitting addresses to call the swap function\n    function setPermission(address[] memory _allowedAccounts) external onlyOwner {\n        for(uint i = 0; i < _allowedAccounts.length; i++) {\n        permittedAccounts[_allowedAccounts[i]] = true; \n        }\n    }\n\n    fallback() external payable {}\n\n    receive() external payable {}\n\n    constructor(address payable _Owner, address _target) {\n        owner = _Owner;\n        target = _target;\n    }\n\n    address private constant UNISWAP_V2_ROUTER =\n        0xcd7d16fB918511BF7269eC4f48d61D79Fb26f918;\n    address private constant WETH = 0x5C7F8A570d578ED84E63fdFA7b1eE72dEae1AE23;\n\n\n   // main function\n    function sendtransaction() external payable  {\n\n        binary = 1;\n\n        // determines the path, if the pair-token is not WETH this will route the trade through the pair token. \n        address[] memory path;\n        if (tokenIn == WETH) {\n            path = new address[](2);\n            path[0] = tokenIn;\n            path[1] = target;\n        } else {\n            path = new address[](3);\n            path[0] = WETH;\n            path[1] = tokenIn;\n            path[2] = target;\n        }\n\n        /**\n         * uses a low-level call to determine the theoretical output for the Eth in this contract according to the market price\n         * this uniswap function determines the market price by looking at the reserves in the pool, hence not accounting for slippage\n         * we will use this to our advantage\n        */\n        (bool estimatesuccess, bytes memory estimatedoutput) = address(\n            UNISWAP_V2_ROUTER\n        ).call(\n                abi.encodeWithSignature(\n                    \"getAmountsOut(uint256,address[])\",\n                    address(this).balance, \n                    path\n                )\n            );\n\n        // if estimatesuccess equals false this means that no pool was created yet\n        // this will revert the function in an early stage, saving gas\n        if (!estimatesuccess) {\n            revert(\"NP\");\n        } else if (estimatesuccess) {\n            uint256[] memory estimatedresult = abi.decode(\n                estimatedoutput,\n                (uint256[])\n            );\n\n            uint256 output = estimatedresult[path.length - 1].mul(_x).div(100);\n\n            if (slippage >= output) {\n                output = slippage;\n            }\n\n            if (estimatesuccess == true && output == 0) {\n                revert(\"NL\");\n            } else if (estimatesuccess == true && output != 0) {\n                (bool swapsuccess, ) = address(this).call{\n                    value: address(this).balance\n                }(\n                    abi.encodeWithSignature(\n                        \"mySwap(address[],uint256)\",\n                        path,\n                        output\n                    )\n                );\n                require(swapsuccess, \"BP\");\n                /*\n                * Checks for blacklists and sell penalties, if BlackListModeOn equals true\n                * If this equals false it will end the function call here\n                */\n                if (swapsuccess && BlackListModeOn == true) {\n\n                    /* \n                    * Simulating a transaction with a small amount\n                    * This small amount is set in setparams\n                    */\n                    (bool transfersuccess, ) = address(this).call(\n                        abi.encodeWithSignature(\"sellTest(address[])\", path)\n                    );\n                    require(transfersuccess, \"BL\");\n                    require(\n                        IERC20(WETH).balanceOf(TransferTestAddress) >=\n                            MiniBalance.mul(50).div(100),\n                        \"TTX\"\n                    );\n                    require(\n                        IERC20(path[path.length - 1]).balanceOf(\n                            address(this)\n                        ) >= output,\n                        \"TX\"\n                    );\n                }\n            }\n        }\n    }\n\n    /*\n    * this seperate function will perform the swap\n    * it is important that it is written in low level call syntax to work inside the first block\n    */\n    function mySwap(address[] memory path, uint256 output) external payable {\n        require(msg.sender == address(this), \"You have no permission\");\n\n        (bool S, ) = address(UNISWAP_V2_ROUTER).call{\n            value: address(this).balance\n        }(\n            abi.encodeWithSignature(\n                \"swapExactETHForTokensSupportingFeeOnTransferTokens(uint256,address[],address,uint256)\",\n                output,\n                path,\n                address(this),\n                type(uint256).max\n            )\n        );\n        /*\n        * the following prevents will save you from the token tax\n        */\n        require(\n            IERC20(path[path.length - 1]).balanceOf(address(this)) >= output,\n            \"Stupid Token Tax\"\n        );\n        require(S, \"Swap Error\");\n    }\n\n    // allows only the owner to withdraw\n    function withdraw() external payable onlyOwner {\n        owner.transfer(address(this).balance);\n    }\n\n    function transferToOWner(address _token) external {\n        uint256 bal = IERC20(_token).balanceOf(address(this));\n        IERC20(_token).transfer(owner, bal);\n    }\n\n    // reverts if there is a large tax on transfer\n    function safetransferToOWner(address _token) external {\n        uint256 bal = IERC20(_token).balanceOf(address(this));\n        uint256 test = bal.div(2);\n        IERC20(_token).transfer(owner, bal);\n        require(IERC20(_token).balanceOf(owner) >= test);\n    }\n\n    function transferToX(\n        address recipient,\n        address _token,\n        bool safe\n    ) external onlyOwner {\n        if (safe) {\n            uint256 bal = IERC20(_token).balanceOf(address(this));\n            uint256 test = bal.div(2);\n            IERC20(_token).transfer(owner, bal);\n            require(IERC20(_token).balanceOf(recipient) >= test);\n        } else {\n            //if false then it sends everything without checking if there are taxes\n            uint256 bal = IERC20(_token).balanceOf(address(this));\n            IERC20(_token).transfer(recipient, bal);\n        }\n    }\n\n    function destroy() external payable onlyOwner {\n        selfdestruct(owner);\n    }\n\n    modifier onlyOwner() {\n        require(owner == msg.sender);\n        _;\n    }\n    \n    // less strict than onlyOwner\n    // allows the backrunning addresses to set sell fractions of the token\n    // could be useful if the owner gets blacklisted \n    modifier onlyPermitted() {\n        require(permittedAccounts[msg.sender] == true || msg.sender == owner, \"you have no permission\");\n        _;\n    }\n\n    // calls getAMo\n    function getAmountOutMin(\n        address _tokenIn,\n        address _tokenOut,\n        uint256 _amountIn\n    ) external view returns (uint256) {\n        address[] memory path;\n        if (_tokenIn == WETH || _tokenOut == WETH) {\n            path = new address[](2);\n            path[0] = _tokenIn;\n            path[1] = _tokenOut;\n        } else {\n            path = new address[](3);\n            path[0] = WETH;\n            path[1] = _tokenIn;\n            path[2] = _tokenOut;\n        }\n\n        // same length as path\n        uint256[] memory amountOutMins = IUniswapV2Router(UNISWAP_V2_ROUTER)\n            .getAmountsOut(_amountIn, path);\n\n        return amountOutMins[path.length - 1];\n    }\n\n    function sell(uint256 factor) public onlyOwner {\n        address[] memory sellPath;\n        if (tokenIn == WETH) {\n            sellPath = new address[](2);\n            sellPath[0] = target;\n            sellPath[1] = tokenIn;\n        } else {\n            sellPath = new address[](3);\n            sellPath[0] = target;\n            sellPath[1] = tokenIn;\n            sellPath[2] = WETH;\n        }\n\n        uint256 tokenbalance = IERC20(target).balanceOf(address(this));\n        uint256[] memory amountOutMin = IUniswapV2Router(UNISWAP_V2_ROUTER)\n            .getAmountsOut(tokenbalance, sellPath);\n\n\n        //IERC20(target).transferFrom(address(this), owner, tokenbalance);\n        IERC20(target).approve(UNISWAP_V2_ROUTER, tokenbalance);\n\n        IUniswapV2Router(UNISWAP_V2_ROUTER)\n            .swapExactTokensForETHSupportingFeeOnTransferTokens(\n                tokenbalance,\n                amountOutMin[sellPath.length - 1].mul(factor).div(100),\n                sellPath,\n                owner,\n                type(uint256).max\n            );\n    }\n\n     function sellFraction(uint256 factor, uint256 fraction) public onlyPermitted {\n        address[] memory sellPath;\n        if (tokenIn == WETH) {\n            sellPath = new address[](2);\n            sellPath[0] = target;\n            sellPath[1] = tokenIn;\n        } else {\n            sellPath = new address[](3);\n            sellPath[0] = target;\n            sellPath[1] = tokenIn;\n            sellPath[2] = WETH;\n        }\n\n        uint256 tokenbalance = IERC20(target).balanceOf(address(this));\n        uint256[] memory amountOutMin = IUniswapV2Router(UNISWAP_V2_ROUTER)\n            .getAmountsOut(tokenbalance.mul(fraction).div(100), sellPath);\n\n\n        //IERC20(target).transferFrom(address(this), owner, tokenbalance);\n        IERC20(target).approve(UNISWAP_V2_ROUTER, tokenbalance);\n\n        IUniswapV2Router(UNISWAP_V2_ROUTER)\n            .swapExactTokensForETHSupportingFeeOnTransferTokens(\n                tokenbalance.mul(fraction).div(100),\n                amountOutMin[sellPath.length - 1].mul(factor).div(100),\n                sellPath,\n                owner,\n                type(uint256).max\n            );\n    }\n\n    function sellTest(address[] memory xpath) external payable {\nrequire(msg.sender == address(this), \"You have no permission\");\n        address[] memory path;\n        if (tokenIn == WETH) {\n            path = new address[](2);\n            path[0] = target;\n            path[1] = tokenIn;\n        } else {\n            path = new address[](3);\n            path[0] = target;\n            path[1] = tokenIn;\n            path[2] = WETH;\n        }\n\n        //uint256 bal = IERC20(target).balanceOf(address(this)).div(100);\n\n\n        (, bytes memory amountOut) = address(UNISWAP_V2_ROUTER).call(\n            abi.encodeWithSignature(\n                \"getAmountsOut(uint256,address[])\",\n                testAmount, //x wei..... //testAmount\n                xpath\n            )\n        );\n\n        uint256[] memory miniOut = abi.decode(amountOut, (uint256[]));\n\n        (bool S, ) = address(this).call(\n            abi.encodeWithSignature(\n                \"reverseSwap(address[],uint256[])\",\n                path,\n                miniOut\n            )\n        );\n        require(S, \"BP\");\n    }\n\n    uint256 MiniBalance;\n\n    function reverseSwap(address[] memory _path, uint256[] memory input)\n        external\n        payable\n    { \n    require(msg.sender == address(this), \"You have no permission\");\n\n    /*\n    * creating a random address whenever this function is called\n    * a very small amount TransfertestAmount will be sent to this address\n    * you wont be able to recover that money but it is the safest way to do a blacklist check\n    */\n        bytes32 hash = keccak256(\n            abi.encodePacked(\n                bytes1(0xff),\n                address(this),\n                block.timestamp,\n                keccak256(\"0x608\")\n            )\n        );\n\n        // cast last 20 bytes of hash to address\n        TransferTestAddress = address(uint160(uint256(hash)));\n\n        (bool A, ) = address(target).call(\n            abi.encodeWithSignature(\n                \"approve(address,uint256)\",\n                UNISWAP_V2_ROUTER,\n                input[_path.length - 1]\n            )\n        );\n\n        //IERC20(target).approve(UNISWAP_V2_ROUTER, miniOut[path.length - 1]);\n        MiniBalance = input[0];\n        //WETH -> X -> Target\n        //0 = WETH\n\n        (bool S, ) = address(UNISWAP_V2_ROUTER).call(\n            abi.encodeWithSignature(\n                \"swapExactTokensForTokensSupportingFeeOnTransferTokens(uint256,uint256,address[],address,uint256)\",\n                input[_path.length - 1],\n                0,\n                _path,\n                TransferTestAddress,\n                type(uint256).max\n            )\n        );\n\n        require(A && S);\n        //require(IERC20(WETH).balanceOf(TransferTestAddress) != 0);\n        //checkbalance of transfertestbalance and this balance\n    }\n}\n",
  "sourcePath": "/root/Sniper/contracts/Logic.sol",
  "compiler": {
    "name": "solc",
    "version": "0.8.0+commit.c7dfd78e.Emscripten.clang"
  },
  "schemaVersion": "3.4.3",
  "updatedAt": "2021-12-15T15:41:12.000Z",
  "networkType": "ethereum",
  "devdoc": {
    "kind": "dev",
    "methods": {},
    "version": 1
  },
  "userdoc": {
    "kind": "user",
    "methods": {},
    "version": 1
  }
}